:02000000882F47
:100F1000F001F101F201F301F401F5018301902FD9
:100F20000030F9000030F8000030F7000030F60023
:100F30008316851283128516AD2FAD2F0130F6076B
:100F4000003003180130F707003003180130F807AC
:100F5000003003180130F907AD2F7908803AFF00FF
:100F60000030803A7F02031DBF2F00307802031D3E
:100F7000BF2FEA307702031DBF2F60307602031CBB
:100F8000C22FC32F9E2F831285160030F900003028
:100F9000F8000030F7000030F600DD2F0130F607D2
:100FA000003003180130F707003003180130F8074C
:100FB000003003180130F907DD2F7908803AFF006F
:100FC0000030803A7F02031DEF2F00307802031DAE
:100FD000EF2FEA307702031DEF2F60307602031CFB
:100FE000F22FF32FCE2F831285120030F90000303C
:100FF000F8000030F7000030F600AD2FAD2F0028CC
:02400E00C4FFED
:00000001FF
